{
  "contractName": "HelloWorld",
  "abi": [
    {
      "constant": true,
      "inputs": [],
      "name": "getHelloMessage",
      "outputs": [
        {
          "internalType": "string",
          "name": "",
          "type": "string"
        }
      ],
      "payable": false,
      "stateMutability": "view",
      "type": "function"
    }
  ],
  "bytecode": "0x60c0604052600b60808190526a12195b1b1bc815dbdc9b1960aa1b60a090815261002c916000919061003f565b5034801561003957600080fd5b506100da565b828054600181600116156101000203166002900490600052602060002090601f016020900481019282601f1061008057805160ff19168380011785556100ad565b828001600101855582156100ad579182015b828111156100ad578251825591602001919060010190610092565b506100b99291506100bd565b5090565b6100d791905b808211156100b957600081556001016100c3565b90565b610178806100e96000396000f3fe608060405234801561001057600080fd5b506004361061002b5760003560e01c80633493b37c14610030575b600080fd5b6100386100ad565b6040805160208082528351818301528351919283929083019185019080838360005b8381101561007257818101518382015260200161005a565b50505050905090810190601f16801561009f5780820380516001836020036101000a031916815260200191505b509250505060405180910390f35b60008054604080516020601f60026000196101006001881615020190951694909404938401819004810282018101909252828152606093909290918301828280156101395780601f1061010e57610100808354040283529160200191610139565b820191906000526020600020905b81548152906001019060200180831161011c57829003601f168201915b505050505090509056fea265627a7a7231582084c4d3cb34549ae9dc86ad60f0e15a605b25ac4e07eefcf1b903903d11b16bd664736f6c63430005100032",
  "source": "// SPDX-License-Identifier: UNKNOWN \r\npragma solidity ^0.5.0;\r\ncontract HelloWorld{\r\n        string private helloworldtext = \"Hello World\";\r\n\r\n        function getHelloMessage() public view returns (string memory){\r\n            return helloworldtext;\r\n        }\r\n}",
  "sourcePath": "D:\\BCWorkSpace\\TestSample\\contracts\\HelloWorld.sol",
  "compiler": {
    "name": "solc",
    "version": "0.5.16+commit.9c3226ce.Emscripten.clang"
  },
  "schemaVersion": "3.4.16",
  "updatedAt": "2024-05-15T07:12:38.229Z",
  "networkType": "ethereum",
  "devdoc": {
    "methods": {}
  },
  "userdoc": {
    "methods": {}
  }
}